{
  "contractName": "ContentOwnership",
  "abi": [
    {
      "inputs": [
        {
          "internalType": "address",
          "name": "_publisher",
          "type": "address"
        },
        {
          "internalType": "address",
          "name": "_oracleAddress",
          "type": "address"
        }
      ],
      "stateMutability": "nonpayable",
      "type": "constructor"
    },
    {
      "anonymous": false,
      "inputs": [
        {
          "indexed": false,
          "internalType": "uint256",
          "name": "contentId",
          "type": "uint256"
        },
        {
          "indexed": false,
          "internalType": "address",
          "name": "owner",
          "type": "address"
        }
      ],
      "name": "ContentAdded",
      "type": "event"
    },
    {
      "anonymous": false,
      "inputs": [
        {
          "indexed": false,
          "internalType": "uint256",
          "name": "contentId",
          "type": "uint256"
        },
        {
          "indexed": false,
          "internalType": "address",
          "name": "owner",
          "type": "address"
        },
        {
          "indexed": false,
          "internalType": "uint256",
          "name": "amount",
          "type": "uint256"
        }
      ],
      "name": "RoyaltyPaid",
      "type": "event"
    },
    {
      "anonymous": false,
      "inputs": [
        {
          "indexed": false,
          "internalType": "uint256",
          "name": "contentId",
          "type": "uint256"
        },
        {
          "indexed": false,
          "internalType": "address",
          "name": "owner",
          "type": "address"
        },
        {
          "indexed": false,
          "internalType": "uint256",
          "name": "amount",
          "type": "uint256"
        }
      ],
      "name": "RoyaltyRequested",
      "type": "event"
    },
    {
      "inputs": [
        {
          "internalType": "uint256",
          "name": "",
          "type": "uint256"
        }
      ],
      "name": "contentToOwner",
      "outputs": [
        {
          "internalType": "address payable",
          "name": "",
          "type": "address"
        }
      ],
      "stateMutability": "view",
      "type": "function"
    },
    {
      "inputs": [],
      "name": "publisher",
      "outputs": [
        {
          "internalType": "address",
          "name": "",
          "type": "address"
        }
      ],
      "stateMutability": "view",
      "type": "function"
    },
    {
      "stateMutability": "payable",
      "type": "receive"
    },
    {
      "inputs": [
        {
          "internalType": "uint256",
          "name": "contentId",
          "type": "uint256"
        }
      ],
      "name": "addContent",
      "outputs": [],
      "stateMutability": "nonpayable",
      "type": "function"
    },
    {
      "inputs": [
        {
          "internalType": "uint256",
          "name": "contentId",
          "type": "uint256"
        }
      ],
      "name": "getRoyalty",
      "outputs": [],
      "stateMutability": "nonpayable",
      "type": "function"
    }
  ],
  "bytecode": "0x608060405234801561001057600080fd5b50604051610d65380380610d65833981810160405281019061003291906100d0565b81600160006101000a81548173ffffffffffffffffffffffffffffffffffffffff021916908373ffffffffffffffffffffffffffffffffffffffff16021790555080600260006101000a81548173ffffffffffffffffffffffffffffffffffffffff021916908373ffffffffffffffffffffffffffffffffffffffff1602179055505050610155565b6000815190506100ca8161013e565b92915050565b600080604083850312156100e357600080fd5b60006100f1858286016100bb565b9250506020610102858286016100bb565b9150509250929050565b60006101178261011e565b9050919050565b600073ffffffffffffffffffffffffffffffffffffffff82169050919050565b6101478161010c565b811461015257600080fd5b50565b610c01806101646000396000f3fe6080604052600436106100435760003560e01c80631af9cf491461004f5780637a580fea146100785780638c72c54e146100a1578063ccf46fe8146100cc5761004a565b3661004a57005b600080fd5b34801561005b57600080fd5b5061007660048036038101906100719190610645565b610109565b005b34801561008457600080fd5b5061009f600480360381019061009a9190610645565b61048e565b005b3480156100ad57600080fd5b506100b66105c2565b6040516100c3919061091a565b60405180910390f35b3480156100d857600080fd5b506100f360048036038101906100ee9190610645565b6105e8565b6040516101009190610935565b60405180910390f35b803373ffffffffffffffffffffffffffffffffffffffff1660008083815260200190815260200160002060009054906101000a900473ffffffffffffffffffffffffffffffffffffffff1673ffffffffffffffffffffffffffffffffffffffff16146101aa576040517f08c379a00000000000000000000000000000000000000000000000000000000081526004016101a1906109f0565b60405180910390fd5b600080600084815260200190815260200160002060009054906101000a900473ffffffffffffffffffffffffffffffffffffffff169050600073ffffffffffffffffffffffffffffffffffffffff168173ffffffffffffffffffffffffffffffffffffffff161415610251576040517f08c379a000000000000000000000000000000000000000000000000000000000815260040161024890610970565b60405180910390fd5b60004711610294576040517f08c379a000000000000000000000000000000000000000000000000000000000815260040161028b906109d0565b60405180910390fd5b6000600260009054906101000a900473ffffffffffffffffffffffffffffffffffffffff1673ffffffffffffffffffffffffffffffffffffffff16632e838e95856040518263ffffffff1660e01b81526004016102f19190610a10565b602060405180830381600087803b15801561030b57600080fd5b505af115801561031f573d6000803e3d6000fd5b505050506040513d601f19601f82011682018060405250810190610343919061066e565b90506000662386f26fc100008261035a9190610aa7565b90508047101561039f576040517f08c379a000000000000000000000000000000000000000000000000000000000815260040161039690610990565b60405180910390fd5b60008373ffffffffffffffffffffffffffffffffffffffff16826040516103c590610905565b60006040518083038185875af1925050503d8060008114610402576040519150601f19603f3d011682016040523d82523d6000602084013e610407565b606091505b505090508061044b576040517f08c379a0000000000000000000000000000000000000000000000000000000008152600401610442906109b0565b60405180910390fd5b7ff670029fc6f5302baba881b4ae845d1453acdf752b4c19ed81fe0fa6a686409b86858460405161047e93929190610a54565b60405180910390a1505050505050565b600073ffffffffffffffffffffffffffffffffffffffff1660008083815260200190815260200160002060009054906101000a900473ffffffffffffffffffffffffffffffffffffffff1673ffffffffffffffffffffffffffffffffffffffff161461052f576040517f08c379a000000000000000000000000000000000000000000000000000000000815260040161052690610950565b60405180910390fd5b60003390508060008084815260200190815260200160002060006101000a81548173ffffffffffffffffffffffffffffffffffffffff021916908373ffffffffffffffffffffffffffffffffffffffff1602179055507f679c44b683e259d4a590af3421f5ab7bac6d3f65829466276d11cb9836c5bd4a82826040516105b6929190610a2b565b60405180910390a15050565b600160009054906101000a900473ffffffffffffffffffffffffffffffffffffffff1681565b60006020528060005260406000206000915054906101000a900473ffffffffffffffffffffffffffffffffffffffff1681565b60008135905061062a81610bb4565b92915050565b60008151905061063f81610bb4565b92915050565b60006020828403121561065757600080fd5b60006106658482850161061b565b91505092915050565b60006020828403121561068057600080fd5b600061068e84828501610630565b91505092915050565b6106a081610b4f565b82525050565b6106af81610b13565b82525050565b6106be81610b01565b82525050565b60006106d1602383610a96565b91507f436f6e74656e7420494420616c7265616479206f776e656420627920736f6d6560008301527f6f6e6500000000000000000000000000000000000000000000000000000000006020830152604082019050919050565b6000610737601883610a96565b91507f4f776e6572206164647265737320697320696e76616c696400000000000000006000830152602082019050919050565b6000610777602683610a96565b91507f496e73756666696369656e742062616c616e636520696e20736d61727420636f60008301527f6e747261637400000000000000000000000000000000000000000000000000006020830152604082019050919050565b60006107dd601683610a96565b91507f526f79616c7479207061796d656e74206661696c6564000000000000000000006000830152602082019050919050565b600061081d600083610a8b565b9150600082019050919050565b6000610837602983610a96565b91507f536d61727420636f6e747261637420646f6573206e6f74206861766520656e6f60008301527f7567682066756e647300000000000000000000000000000000000000000000006020830152604082019050919050565b600061089d602883610a96565b91507f596f7520617265206e6f7420746865206f776e6572206f66207468697320636f60008301527f6e74656e742049440000000000000000000000000000000000000000000000006020830152604082019050919050565b6108ff81610b45565b82525050565b600061091082610810565b9150819050919050565b600060208201905061092f60008301846106b5565b92915050565b600060208201905061094a60008301846106a6565b92915050565b60006020820190508181036000830152610969816106c4565b9050919050565b600060208201905081810360008301526109898161072a565b9050919050565b600060208201905081810360008301526109a98161076a565b9050919050565b600060208201905081810360008301526109c9816107d0565b9050919050565b600060208201905081810360008301526109e98161082a565b9050919050565b60006020820190508181036000830152610a0981610890565b9050919050565b6000602082019050610a2560008301846108f6565b92915050565b6000604082019050610a4060008301856108f6565b610a4d6020830184610697565b9392505050565b6000606082019050610a6960008301866108f6565b610a766020830185610697565b610a8360408301846108f6565b949350505050565b600081905092915050565b600082825260208201905092915050565b6000610ab282610b45565b9150610abd83610b45565b9250817fffffffffffffffffffffffffffffffffffffffffffffffffffffffffffffffff0483118215151615610af657610af5610b85565b5b828202905092915050565b6000610b0c82610b25565b9050919050565b6000610b1e82610b25565b9050919050565b600073ffffffffffffffffffffffffffffffffffffffff82169050919050565b6000819050919050565b6000610b5a82610b61565b9050919050565b6000610b6c82610b73565b9050919050565b6000610b7e82610b25565b9050919050565b7f4e487b7100000000000000000000000000000000000000000000000000000000600052601160045260246000fd5b610bbd81610b45565b8114610bc857600080fd5b5056fea264697066735822122069f9749375964369b9e5e25f4c0bcf2ab08088ff96fbcac42838496dbcfc363f64736f6c63430008000033",
  "immutableReferences": {},
  "source": "// SPDX-License-Identifier: MIT\r\npragma solidity ^0.8.0;\r\n\r\nimport \"./Oracle.sol\";\r\n\r\ncontract ContentOwnership {\r\n    mapping(uint256 => address payable) public contentToOwner;\r\n    address public publisher;\r\n    Oracle oracle;\r\n\r\n    event RoyaltyRequested(uint256 contentId, address owner, uint256 amount);\r\n    event ContentAdded(uint256 contentId, address owner);\r\n    event RoyaltyPaid(uint256 contentId, address owner, uint256 amount);\r\n\r\n    constructor(address _publisher, address _oracleAddress) {\r\n        publisher = _publisher;\r\n        oracle = Oracle(payable(_oracleAddress));\r\n    }\r\n\r\n    modifier onlyContentOwner(uint256 contentId) {\r\n        require(contentToOwner[contentId] == msg.sender, \"You are not the owner of this content ID\");\r\n        _;\r\n    }\r\n\r\n    modifier onlyPublisher() {\r\n        require(msg.sender == publisher, \"Only the publisher can execute this\");\r\n        _;\r\n    }\r\n\r\n    function addContent(uint256 contentId) public {\r\n        require(contentToOwner[contentId] == address(0), \"Content ID already owned by someone\");\r\n\r\n        address payable owner = payable(msg.sender);\r\n        contentToOwner[contentId] = owner;\r\n\r\n        emit ContentAdded(contentId, owner);\r\n    }\r\n\r\n    function getRoyalty(uint256 contentId) public onlyContentOwner(contentId) {\r\n        address payable owner = contentToOwner[contentId];\r\n\r\n        require(owner != address(0), \"Owner address is invalid\");\r\n        require(address(this).balance > 0, \"Smart contract does not have enough funds\");\r\n\r\n        uint256 viewCount = oracle.getContentViewers(contentId);\r\n        uint256 royaltyAmount =  viewCount * 0.01 ether;  \r\n\r\n        require(address(this).balance >= royaltyAmount, \"Insufficient balance in smart contract\");\r\n\r\n        (bool success, ) = owner.call{value: royaltyAmount}(\"\");\r\n        require(success, \"Royalty payment failed\");\r\n\r\n        emit RoyaltyPaid(contentId, owner, royaltyAmount);\r\n    }\r\n\r\n    receive() external payable {}\r\n}\r\n\r\n",
  "sourcePath": "D:\\KuliahTemp\\Blockchain\\tubes-blockchain\\contracts\\Royalti.sol",
  "compiler": {
    "name": "solc",
    "version": "0.8.0+commit.c7dfd78e.Emscripten.clang"
  },
  "schemaVersion": "3.4.16",
  "updatedAt": "2024-12-30T02:23:02.139Z",
  "devdoc": {
    "kind": "dev",
    "methods": {},
    "version": 1
  },
  "userdoc": {
    "kind": "user",
    "methods": {},
    "version": 1
  }
}