{
  "contractName": "ContentOwnership",
  "abi": [
    {
      "inputs": [
        {
          "internalType": "address",
          "name": "_publisher",
          "type": "address"
        }
      ],
      "stateMutability": "nonpayable",
      "type": "constructor"
    },
    {
      "anonymous": false,
      "inputs": [
        {
          "indexed": false,
          "internalType": "uint256",
          "name": "contentId",
          "type": "uint256"
        },
        {
          "indexed": false,
          "internalType": "address",
          "name": "owner",
          "type": "address"
        }
      ],
      "name": "ContentAdded",
      "type": "event"
    },
    {
      "anonymous": false,
      "inputs": [
        {
          "indexed": false,
          "internalType": "uint256",
          "name": "contentId",
          "type": "uint256"
        },
        {
          "indexed": false,
          "internalType": "address",
          "name": "owner",
          "type": "address"
        },
        {
          "indexed": false,
          "internalType": "uint256",
          "name": "amount",
          "type": "uint256"
        }
      ],
      "name": "RoyaltyPaid",
      "type": "event"
    },
    {
      "anonymous": false,
      "inputs": [
        {
          "indexed": false,
          "internalType": "uint256",
          "name": "contentId",
          "type": "uint256"
        },
        {
          "indexed": false,
          "internalType": "address",
          "name": "owner",
          "type": "address"
        },
        {
          "indexed": false,
          "internalType": "uint256",
          "name": "amount",
          "type": "uint256"
        }
      ],
      "name": "RoyaltyRequested",
      "type": "event"
    },
    {
      "inputs": [
        {
          "internalType": "uint256",
          "name": "",
          "type": "uint256"
        }
      ],
      "name": "contentToOwner",
      "outputs": [
        {
          "internalType": "address payable",
          "name": "",
          "type": "address"
        }
      ],
      "stateMutability": "view",
      "type": "function",
      "constant": true
    },
    {
      "inputs": [
        {
          "internalType": "uint256",
          "name": "",
          "type": "uint256"
        }
      ],
      "name": "lastContentViewers",
      "outputs": [
        {
          "internalType": "uint256",
          "name": "",
          "type": "uint256"
        }
      ],
      "stateMutability": "view",
      "type": "function",
      "constant": true
    },
    {
      "inputs": [],
      "name": "publisher",
      "outputs": [
        {
          "internalType": "address",
          "name": "",
          "type": "address"
        }
      ],
      "stateMutability": "view",
      "type": "function",
      "constant": true
    },
    {
      "stateMutability": "payable",
      "type": "receive",
      "payable": true
    },
    {
      "inputs": [
        {
          "internalType": "address",
          "name": "_oracle",
          "type": "address"
        }
      ],
      "name": "setOracle",
      "outputs": [],
      "stateMutability": "nonpayable",
      "type": "function"
    },
    {
      "inputs": [
        {
          "internalType": "uint256",
          "name": "contentId",
          "type": "uint256"
        }
      ],
      "name": "addContent",
      "outputs": [],
      "stateMutability": "nonpayable",
      "type": "function"
    },
    {
      "inputs": [
        {
          "internalType": "uint256",
          "name": "contentId",
          "type": "uint256"
        }
      ],
      "name": "getRoyalty",
      "outputs": [],
      "stateMutability": "nonpayable",
      "type": "function"
    }
  ],
  "bytecode": "0x608060405234801561001057600080fd5b50604051610fda380380610fda8339818101604052810190610032919061008e565b80600260006101000a81548173ffffffffffffffffffffffffffffffffffffffff021916908373ffffffffffffffffffffffffffffffffffffffff16021790555050610100565b600081519050610088816100e9565b92915050565b6000602082840312156100a057600080fd5b60006100ae84828501610079565b91505092915050565b60006100c2826100c9565b9050919050565b600073ffffffffffffffffffffffffffffffffffffffff82169050919050565b6100f2816100b7565b81146100fd57600080fd5b50565b610ecb8061010f6000396000f3fe6080604052600436106100595760003560e01c80631af9cf49146100655780637a580fea1461008e5780637adbf973146100b75780638c72c54e146100e05780639013893b1461010b578063ccf46fe81461014857610060565b3661006057005b600080fd5b34801561007157600080fd5b5061008c6004803603810190610087919061083e565b610185565b005b34801561009a57600080fd5b506100b560048036038101906100b0919061083e565b610544565b005b3480156100c357600080fd5b506100de60048036038101906100d99190610815565b610691565b005b3480156100ec57600080fd5b506100f5610765565b6040516101029190610b79565b60405180910390f35b34801561011757600080fd5b50610132600480360381019061012d919061083e565b61078b565b60405161013f9190610c8f565b60405180910390f35b34801561015457600080fd5b5061016f600480360381019061016a919061083e565b6107a3565b60405161017c9190610b94565b60405180910390f35b803373ffffffffffffffffffffffffffffffffffffffff1660008083815260200190815260200160002060009054906101000a900473ffffffffffffffffffffffffffffffffffffffff1673ffffffffffffffffffffffffffffffffffffffff1614610226576040517f08c379a000000000000000000000000000000000000000000000000000000000815260040161021d90610c6f565b60405180910390fd5b600080600084815260200190815260200160002060009054906101000a900473ffffffffffffffffffffffffffffffffffffffff169050600073ffffffffffffffffffffffffffffffffffffffff168173ffffffffffffffffffffffffffffffffffffffff1614156102cd576040517f08c379a00000000000000000000000000000000000000000000000000000000081526004016102c490610bcf565b60405180910390fd5b60004711610310576040517f08c379a000000000000000000000000000000000000000000000000000000000815260040161030790610c4f565b60405180910390fd5b6000600360009054906101000a900473ffffffffffffffffffffffffffffffffffffffff1673ffffffffffffffffffffffffffffffffffffffff16632e838e95856040518263ffffffff1660e01b815260040161036d9190610c8f565b602060405180830381600087803b15801561038757600080fd5b505af115801561039b573d6000803e3d6000fd5b505050506040513d601f19601f820116820180604052508101906103bf9190610867565b905060006001600086815260200190815260200160002054826103e29190610d80565b9050600064e8d4a51000826103f79190610d26565b90508047101561043c576040517f08c379a000000000000000000000000000000000000000000000000000000000815260040161043390610c0f565b60405180910390fd5b82600160008881526020019081526020016000208190555060008473ffffffffffffffffffffffffffffffffffffffff168260405161047a90610b64565b60006040518083038185875af1925050503d80600081146104b7576040519150601f19603f3d011682016040523d82523d6000602084013e6104bc565b606091505b5050905080610500576040517f08c379a00000000000000000000000000000000000000000000000000000000081526004016104f790610c2f565b60405180910390fd5b7ff670029fc6f5302baba881b4ae845d1453acdf752b4c19ed81fe0fa6a686409b87868460405161053393929190610cd3565b60405180910390a150505050505050565b600073ffffffffffffffffffffffffffffffffffffffff1660008083815260200190815260200160002060009054906101000a900473ffffffffffffffffffffffffffffffffffffffff1673ffffffffffffffffffffffffffffffffffffffff16146105e5576040517f08c379a00000000000000000000000000000000000000000000000000000000081526004016105dc90610baf565b60405180910390fd5b60003390508060008084815260200190815260200160002060006101000a81548173ffffffffffffffffffffffffffffffffffffffff021916908373ffffffffffffffffffffffffffffffffffffffff160217905550600060016000848152602001908152602001600020819055507f679c44b683e259d4a590af3421f5ab7bac6d3f65829466276d11cb9836c5bd4a8282604051610685929190610caa565b60405180910390a15050565b600260009054906101000a900473ffffffffffffffffffffffffffffffffffffffff1673ffffffffffffffffffffffffffffffffffffffff163373ffffffffffffffffffffffffffffffffffffffff1614610721576040517f08c379a000000000000000000000000000000000000000000000000000000000815260040161071890610bef565b60405180910390fd5b80600360006101000a81548173ffffffffffffffffffffffffffffffffffffffff021916908373ffffffffffffffffffffffffffffffffffffffff16021790555050565b600260009054906101000a900473ffffffffffffffffffffffffffffffffffffffff1681565b60016020528060005260406000206000915090505481565b60006020528060005260406000206000915054906101000a900473ffffffffffffffffffffffffffffffffffffffff1681565b6000813590506107e581610e67565b92915050565b6000813590506107fa81610e7e565b92915050565b60008151905061080f81610e7e565b92915050565b60006020828403121561082757600080fd5b6000610835848285016107d6565b91505092915050565b60006020828403121561085057600080fd5b600061085e848285016107eb565b91505092915050565b60006020828403121561087957600080fd5b600061088784828501610800565b91505092915050565b61089981610e02565b82525050565b6108a881610dc6565b82525050565b6108b781610db4565b82525050565b60006108ca602383610d15565b91507f436f6e74656e7420494420616c7265616479206f776e656420627920736f6d6560008301527f6f6e6500000000000000000000000000000000000000000000000000000000006020830152604082019050919050565b6000610930601883610d15565b91507f4f776e6572206164647265737320697320696e76616c696400000000000000006000830152602082019050919050565b6000610970602383610d15565b91507f4f6e6c7920746865207075626c69736865722063616e2065786563757465207460008301527f68697300000000000000000000000000000000000000000000000000000000006020830152604082019050919050565b60006109d6602683610d15565b91507f496e73756666696369656e742062616c616e636520696e20736d61727420636f60008301527f6e747261637400000000000000000000000000000000000000000000000000006020830152604082019050919050565b6000610a3c601683610d15565b91507f526f79616c7479207061796d656e74206661696c6564000000000000000000006000830152602082019050919050565b6000610a7c600083610d0a565b9150600082019050919050565b6000610a96602983610d15565b91507f536d61727420636f6e747261637420646f6573206e6f74206861766520656e6f60008301527f7567682066756e647300000000000000000000000000000000000000000000006020830152604082019050919050565b6000610afc602883610d15565b91507f596f7520617265206e6f7420746865206f776e6572206f66207468697320636f60008301527f6e74656e742049440000000000000000000000000000000000000000000000006020830152604082019050919050565b610b5e81610df8565b82525050565b6000610b6f82610a6f565b9150819050919050565b6000602082019050610b8e60008301846108ae565b92915050565b6000602082019050610ba9600083018461089f565b92915050565b60006020820190508181036000830152610bc8816108bd565b9050919050565b60006020820190508181036000830152610be881610923565b9050919050565b60006020820190508181036000830152610c0881610963565b9050919050565b60006020820190508181036000830152610c28816109c9565b9050919050565b60006020820190508181036000830152610c4881610a2f565b9050919050565b60006020820190508181036000830152610c6881610a89565b9050919050565b60006020820190508181036000830152610c8881610aef565b9050919050565b6000602082019050610ca46000830184610b55565b92915050565b6000604082019050610cbf6000830185610b55565b610ccc6020830184610890565b9392505050565b6000606082019050610ce86000830186610b55565b610cf56020830185610890565b610d026040830184610b55565b949350505050565b600081905092915050565b600082825260208201905092915050565b6000610d3182610df8565b9150610d3c83610df8565b9250817fffffffffffffffffffffffffffffffffffffffffffffffffffffffffffffffff0483118215151615610d7557610d74610e38565b5b828202905092915050565b6000610d8b82610df8565b9150610d9683610df8565b925082821015610da957610da8610e38565b5b828203905092915050565b6000610dbf82610dd8565b9050919050565b6000610dd182610dd8565b9050919050565b600073ffffffffffffffffffffffffffffffffffffffff82169050919050565b6000819050919050565b6000610e0d82610e14565b9050919050565b6000610e1f82610e26565b9050919050565b6000610e3182610dd8565b9050919050565b7f4e487b7100000000000000000000000000000000000000000000000000000000600052601160045260246000fd5b610e7081610db4565b8114610e7b57600080fd5b50565b610e8781610df8565b8114610e9257600080fd5b5056fea264697066735822122073512263dc022a2f533863fd8d6c7bb8592092ddd3ff656ea8a2a56c3144174064736f6c63430008000033",
  "immutableReferences": {},
  "source": "// SPDX-License-Identifier: MIT\npragma solidity ^0.8.0;\n\nimport \"./Oracle.sol\";\n\ncontract ContentOwnership {\n    mapping(uint256 => address payable) public contentToOwner;\n    mapping(uint256 => uint256) public lastContentViewers;\n    address public publisher;\n    Oracle oracle;\n\n    event RoyaltyRequested(uint256 contentId, address owner, uint256 amount);\n    event ContentAdded(uint256 contentId, address owner);\n    event RoyaltyPaid(uint256 contentId, address owner, uint256 amount);\n\n    constructor(address _publisher) {\n        publisher = _publisher;\n//        oracle = Oracle(payable(_oracleAddress));\n    }\n\n    modifier onlyContentOwner(uint256 contentId) {\n        require(contentToOwner[contentId] == msg.sender, \"You are not the owner of this content ID\");\n        _;\n    }\n\n    modifier onlyPublisher() {\n        require(msg.sender == publisher, \"Only the publisher can execute this\");\n        _;\n    }\n\n    function setOracle(address _oracle) public onlyPublisher {\n        oracle=Oracle(_oracle);\n    }\n\n    function addContent(uint256 contentId) public {\n        require(contentToOwner[contentId] == address(0), \"Content ID already owned by someone\");\n\n        address payable owner = payable(msg.sender);\n        contentToOwner[contentId] = owner;\n        lastContentViewers[contentId] = 0;\n\n        emit ContentAdded(contentId, owner);\n    }\n\n    function getRoyalty(uint256 contentId) public onlyContentOwner(contentId) {\n        address payable owner = contentToOwner[contentId];\n\n        require(owner != address(0), \"Owner address is invalid\");\n        require(address(this).balance > 0, \"Smart contract does not have enough funds\");\n\n        uint256 viewCount = oracle.getContentViewers(contentId);\n        uint256 delta = viewCount-lastContentViewers[contentId];\n        uint256 royaltyAmount =  delta * 0.000001 ether;\n\n        require(address(this).balance >= royaltyAmount, \"Insufficient balance in smart contract\");\n\n        lastContentViewers[contentId] = viewCount;\n\n        (bool success, ) = owner.call{value: royaltyAmount}(\"\");\n        require(success, \"Royalty payment failed\");\n\n        emit RoyaltyPaid(contentId, owner, royaltyAmount);\n    }\n\n    receive() external payable {}\n}\n\n",
  "sourcePath": "/home/suisei/Documents/GitHub/dapps2/contracts/Royalti.sol",
  "compiler": {
    "name": "solc",
    "version": "0.8.0+commit.c7dfd78e.Emscripten.clang"
  },
  "schemaVersion": "3.4.16",
  "updatedAt": "2024-12-30T07:21:09.888Z",
  "networkType": "ethereum",
  "devdoc": {
    "kind": "dev",
    "methods": {},
    "version": 1
  },
  "userdoc": {
    "kind": "user",
    "methods": {},
    "version": 1
  }
}