{
  "contractName": "ContentOwnership",
  "abi": [
    {
      "inputs": [
        {
          "internalType": "address",
          "name": "_publisher",
          "type": "address"
        },
        {
          "internalType": "address",
          "name": "_oracleAddress",
          "type": "address"
        }
      ],
      "stateMutability": "nonpayable",
      "type": "constructor"
    },
    {
      "anonymous": false,
      "inputs": [
        {
          "indexed": false,
          "internalType": "address payable",
          "name": "newWallet",
          "type": "address"
        }
      ],
      "name": "PredefinedWalletUpdated",
      "type": "event"
    },
    {
      "anonymous": false,
      "inputs": [
        {
          "indexed": false,
          "internalType": "uint256",
          "name": "contentId",
          "type": "uint256"
        },
        {
          "indexed": false,
          "internalType": "address",
          "name": "owner",
          "type": "address"
        },
        {
          "indexed": false,
          "internalType": "uint256",
          "name": "amount",
          "type": "uint256"
        }
      ],
      "name": "RoyaltyPaid",
      "type": "event"
    },
    {
      "inputs": [
        {
          "internalType": "uint256",
          "name": "",
          "type": "uint256"
        }
      ],
      "name": "contentToOwner",
      "outputs": [
        {
          "internalType": "address payable",
          "name": "",
          "type": "address"
        }
      ],
      "stateMutability": "view",
      "type": "function",
      "constant": true
    },
    {
      "inputs": [],
      "name": "predefinedWallet",
      "outputs": [
        {
          "internalType": "address payable",
          "name": "",
          "type": "address"
        }
      ],
      "stateMutability": "view",
      "type": "function",
      "constant": true
    },
    {
      "inputs": [],
      "name": "publisher",
      "outputs": [
        {
          "internalType": "address",
          "name": "",
          "type": "address"
        }
      ],
      "stateMutability": "view",
      "type": "function",
      "constant": true
    },
    {
      "inputs": [
        {
          "internalType": "address payable",
          "name": "newWallet",
          "type": "address"
        }
      ],
      "name": "setPredefinedWallet",
      "outputs": [],
      "stateMutability": "nonpayable",
      "type": "function"
    },
    {
      "inputs": [
        {
          "internalType": "uint256",
          "name": "contentId",
          "type": "uint256"
        }
      ],
      "name": "addContent",
      "outputs": [],
      "stateMutability": "nonpayable",
      "type": "function"
    },
    {
      "inputs": [
        {
          "internalType": "uint256",
          "name": "contentId",
          "type": "uint256"
        }
      ],
      "name": "getRoyalty",
      "outputs": [],
      "stateMutability": "nonpayable",
      "type": "function"
    }
  ],
  "bytecode": "0x608060405234801561001057600080fd5b50604051610f9c380380610f9c833981810160405281019061003291906100d0565b81600260006101000a81548173ffffffffffffffffffffffffffffffffffffffff021916908373ffffffffffffffffffffffffffffffffffffffff16021790555080600360006101000a81548173ffffffffffffffffffffffffffffffffffffffff021916908373ffffffffffffffffffffffffffffffffffffffff1602179055505050610155565b6000815190506100ca8161013e565b92915050565b600080604083850312156100e357600080fd5b60006100f1858286016100bb565b9250506020610102858286016100bb565b9150509250929050565b60006101178261011e565b9050919050565b600073ffffffffffffffffffffffffffffffffffffffff82169050919050565b6101478161010c565b811461015257600080fd5b50565b610e38806101646000396000f3fe608060405234801561001057600080fd5b50600436106100625760003560e01c80631af9cf49146100675780632dd98c18146100835780635deb80bd1461009f5780637a580fea146100bd5780638c72c54e146100d9578063ccf46fe8146100f7575b600080fd5b610081600480360381019061007c9190610808565b610127565b005b61009d600480360381019061009891906107df565b61051b565b005b6100a7610626565b6040516100b49190610b5e565b60405180910390f35b6100d760048036038101906100d29190610808565b61064c565b005b6100e1610747565b6040516100ee9190610b43565b60405180910390f35b610111600480360381019061010c9190610808565b61076d565b60405161011e9190610b5e565b60405180910390f35b803373ffffffffffffffffffffffffffffffffffffffff1660008083815260200190815260200160002060009054906101000a900473ffffffffffffffffffffffffffffffffffffffff1673ffffffffffffffffffffffffffffffffffffffff16146101c8576040517f08c379a00000000000000000000000000000000000000000000000000000000081526004016101bf90610c39565b60405180910390fd5b600080600084815260200190815260200160002060009054906101000a900473ffffffffffffffffffffffffffffffffffffffff169050600073ffffffffffffffffffffffffffffffffffffffff168173ffffffffffffffffffffffffffffffffffffffff16141561026f576040517f08c379a000000000000000000000000000000000000000000000000000000000815260040161026690610b99565b60405180910390fd5b6000600160009054906101000a900473ffffffffffffffffffffffffffffffffffffffff1673ffffffffffffffffffffffffffffffffffffffff1631116102eb576040517f08c379a00000000000000000000000000000000000000000000000000000000081526004016102e290610c19565b60405180910390fd5b6000600360009054906101000a900473ffffffffffffffffffffffffffffffffffffffff1673ffffffffffffffffffffffffffffffffffffffff16632e838e95856040518263ffffffff1660e01b81526004016103489190610c59565b60206040518083038186803b15801561036057600080fd5b505afa158015610374573d6000803e3d6000fd5b505050506040513d601f19601f820116820180604052508101906103989190610831565b905060006509184e72a000826103ae9190610cc7565b905080600160009054906101000a900473ffffffffffffffffffffffffffffffffffffffff1673ffffffffffffffffffffffffffffffffffffffff1631101561042c576040517f08c379a000000000000000000000000000000000000000000000000000000000815260040161042390610bf9565b60405180910390fd5b60008373ffffffffffffffffffffffffffffffffffffffff168260405161045290610b2e565b60006040518083038185875af1925050503d806000811461048f576040519150601f19603f3d011682016040523d82523d6000602084013e610494565b606091505b50509050806104d8576040517f08c379a00000000000000000000000000000000000000000000000000000000081526004016104cf90610bd9565b60405180910390fd5b7ff670029fc6f5302baba881b4ae845d1453acdf752b4c19ed81fe0fa6a686409b86858460405161050b93929190610c74565b60405180910390a1505050505050565b600260009054906101000a900473ffffffffffffffffffffffffffffffffffffffff1673ffffffffffffffffffffffffffffffffffffffff163373ffffffffffffffffffffffffffffffffffffffff16146105ab576040517f08c379a00000000000000000000000000000000000000000000000000000000081526004016105a290610bb9565b60405180910390fd5b80600160006101000a81548173ffffffffffffffffffffffffffffffffffffffff021916908373ffffffffffffffffffffffffffffffffffffffff1602179055507ff226e472a80e2e5be980c7b1c580c35334473a467c8cc28eb220d88e884af40b8160405161061b9190610b5e565b60405180910390a150565b600160009054906101000a900473ffffffffffffffffffffffffffffffffffffffff1681565b600073ffffffffffffffffffffffffffffffffffffffff1660008083815260200190815260200160002060009054906101000a900473ffffffffffffffffffffffffffffffffffffffff1673ffffffffffffffffffffffffffffffffffffffff16146106ed576040517f08c379a00000000000000000000000000000000000000000000000000000000081526004016106e490610b79565b60405180910390fd5b60003390508060008084815260200190815260200160002060006101000a81548173ffffffffffffffffffffffffffffffffffffffff021916908373ffffffffffffffffffffffffffffffffffffffff1602179055505050565b600260009054906101000a900473ffffffffffffffffffffffffffffffffffffffff1681565b60006020528060005260406000206000915054906101000a900473ffffffffffffffffffffffffffffffffffffffff1681565b6000813590506107af81610dd4565b92915050565b6000813590506107c481610deb565b92915050565b6000815190506107d981610deb565b92915050565b6000602082840312156107f157600080fd5b60006107ff848285016107a0565b91505092915050565b60006020828403121561081a57600080fd5b6000610828848285016107b5565b91505092915050565b60006020828403121561084357600080fd5b6000610851848285016107ca565b91505092915050565b61086381610d6f565b82525050565b61087281610d33565b82525050565b61088181610d21565b82525050565b6000610894602383610cb6565b91507f436f6e74656e7420494420616c7265616479206f776e656420627920736f6d6560008301527f6f6e6500000000000000000000000000000000000000000000000000000000006020830152604082019050919050565b60006108fa601883610cb6565b91507f4f776e6572206164647265737320697320696e76616c696400000000000000006000830152602082019050919050565b600061093a602383610cb6565b91507f4f6e6c7920746865207075626c69736865722063616e2065786563757465207460008301527f68697300000000000000000000000000000000000000000000000000000000006020830152604082019050919050565b60006109a0601683610cb6565b91507f526f79616c7479207061796d656e74206661696c6564000000000000000000006000830152602082019050919050565b60006109e0600083610cab565b9150600082019050919050565b60006109fa602983610cb6565b91507f496e73756666696369656e742062616c616e636520696e20707265646566696e60008301527f65642077616c6c657400000000000000000000000000000000000000000000006020830152604082019050919050565b6000610a60602c83610cb6565b91507f507265646566696e65642077616c6c657420646f6573206e6f7420686176652060008301527f656e6f7567682066756e647300000000000000000000000000000000000000006020830152604082019050919050565b6000610ac6602883610cb6565b91507f596f7520617265206e6f7420746865206f776e6572206f66207468697320636f60008301527f6e74656e742049440000000000000000000000000000000000000000000000006020830152604082019050919050565b610b2881610d65565b82525050565b6000610b39826109d3565b9150819050919050565b6000602082019050610b586000830184610878565b92915050565b6000602082019050610b736000830184610869565b92915050565b60006020820190508181036000830152610b9281610887565b9050919050565b60006020820190508181036000830152610bb2816108ed565b9050919050565b60006020820190508181036000830152610bd28161092d565b9050919050565b60006020820190508181036000830152610bf281610993565b9050919050565b60006020820190508181036000830152610c12816109ed565b9050919050565b60006020820190508181036000830152610c3281610a53565b9050919050565b60006020820190508181036000830152610c5281610ab9565b9050919050565b6000602082019050610c6e6000830184610b1f565b92915050565b6000606082019050610c896000830186610b1f565b610c96602083018561085a565b610ca36040830184610b1f565b949350505050565b600081905092915050565b600082825260208201905092915050565b6000610cd282610d65565b9150610cdd83610d65565b9250817fffffffffffffffffffffffffffffffffffffffffffffffffffffffffffffffff0483118215151615610d1657610d15610da5565b5b828202905092915050565b6000610d2c82610d45565b9050919050565b6000610d3e82610d45565b9050919050565b600073ffffffffffffffffffffffffffffffffffffffff82169050919050565b6000819050919050565b6000610d7a82610d81565b9050919050565b6000610d8c82610d93565b9050919050565b6000610d9e82610d45565b9050919050565b7f4e487b7100000000000000000000000000000000000000000000000000000000600052601160045260246000fd5b610ddd81610d33565b8114610de857600080fd5b50565b610df481610d65565b8114610dff57600080fd5b5056fea2646970667358221220e8797804a37a39e2fc72d4f4797f711e815e1a75a7e9665cfd42b78ce22fa1ae64736f6c63430008000033",
  "immutableReferences": {},
  "source": "// SPDX-License-Identifier: MIT\npragma solidity ^0.8.0;\n\nimport \"./Oracle.sol\";\n\ncontract ContentOwnership {\n    mapping(uint256 => address payable) public contentToOwner;\n    address payable public predefinedWallet;\n    address public publisher;\n    Oracle oracle;\n\n    event RoyaltyPaid(uint256 contentId, address owner, uint256 amount);\n    event PredefinedWalletUpdated(address payable newWallet);\n\n    constructor(address _publisher, address _oracleAddress) {\n        publisher = _publisher;\n        oracle = Oracle(_oracleAddress);\n    }\n\n    modifier onlyContentOwner(uint256 contentId) {\n        require(contentToOwner[contentId] == msg.sender, \"You are not the owner of this content ID\");\n        _;\n    }\n\n    modifier onlyPublisher() {\n        require(msg.sender == publisher, \"Only the publisher can execute this\");\n        _;\n    }\n\n    function setPredefinedWallet(address payable newWallet) public onlyPublisher {\n        predefinedWallet = newWallet;\n        emit PredefinedWalletUpdated(newWallet);\n    }\n\n    function addContent(uint256 contentId) public {\n        require(contentToOwner[contentId] == address(0), \"Content ID already owned by someone\");\n\n        address payable owner = payable(msg.sender);\n        contentToOwner[contentId] = owner;\n    }\n\n    function getRoyalty(uint256 contentId) public onlyContentOwner(contentId) {\n        address payable owner = contentToOwner[contentId];\n\n        require(owner != address(0), \"Owner address is invalid\");\n        require(predefinedWallet.balance > 0, \"Predefined wallet does not have enough funds\");\n\n        uint256 viewCount = oracle.getContentViewers(contentId);\n        uint256 royaltyAmount =  viewCount * 0.00001 ether;  \n\n        require(predefinedWallet.balance >= royaltyAmount, \"Insufficient balance in predefined wallet\");\n\n        (bool success, ) = owner.call{value: royaltyAmount}(\"\");\n        require(success, \"Royalty payment failed\");\n\n        emit RoyaltyPaid(contentId, owner, royaltyAmount);\n    }\n}\n\n",
  "sourcePath": "C:\\Users\\USER\\Desktop\\rantaibalok\\tubes-blockchain\\contracts\\Royalti.sol",
  "compiler": {
    "name": "solc",
    "version": "0.8.0+commit.c7dfd78e.Emscripten.clang"
  },
  "schemaVersion": "3.4.16",
  "updatedAt": "2024-12-29T13:06:15.619Z",
  "networkType": "ethereum",
  "devdoc": {
    "kind": "dev",
    "methods": {},
    "version": 1
  },
  "userdoc": {
    "kind": "user",
    "methods": {},
    "version": 1
  }
}