{
  "contractName": "HelloWorld",
  "abi": [
    {
      "constant": false,
      "inputs": [
        {
          "name": "_name",
          "type": "string"
        }
      ],
      "name": "inputUser",
      "outputs": [],
      "payable": false,
      "stateMutability": "nonpayable",
      "type": "function"
    },
    {
      "constant": true,
      "inputs": [],
      "name": "dispUser",
      "outputs": [
        {
          "name": "",
          "type": "string"
        }
      ],
      "payable": false,
      "stateMutability": "view",
      "type": "function"
    }
  ],
  "bytecode": "0x608060405234801561001057600080fd5b506103e1806100206000396000f30060806040526004361061004c576000357c0100000000000000000000000000000000000000000000000000000000900463ffffffff1680630ebb38b114610051578063f9a0a18f146100ba575b600080fd5b34801561005d57600080fd5b506100b8600480360381019080803590602001908201803590602001908080601f016020809104026020016040519081016040528093929190818152602001838380828437820191505050505050919291929050505061014a565b005b3480156100c657600080fd5b506100cf610164565b6040518080602001828103825283818151815260200191508051906020019080838360005b8381101561010f5780820151818401526020810190506100f4565b50505050905090810190601f16801561013c5780820380516001836020036101000a031916815260200191505b509250505060405180910390f35b8060009080519060200190610160929190610310565b5050565b606061023f6040805190810160405280601881526020017f48656c6c6f20776f726c6421204d79206e616d6520697320000000000000000081525060008054600181600116156101000203166002900480601f0160208091040260200160405190810160405280929190818152602001828054600181600116156101000203166002900480156102355780601f1061020a57610100808354040283529160200191610235565b820191906000526020600020905b81548152906001019060200180831161021857829003601f168201915b5050505050610244565b905090565b606082826040516020018083805190602001908083835b602083101515610280578051825260208201915060208101905060208303925061025b565b6001836020036101000a03801982511681845116808217855250505050505090500182805190602001908083835b6020831015156102d357805182526020820191506020810190506020830392506102ae565b6001836020036101000a03801982511681845116808217855250505050505090500192505050604051602081830303815290604052905092915050565b828054600181600116156101000203166002900490600052602060002090601f016020900481019282601f1061035157805160ff191683800117855561037f565b8280016001018555821561037f579182015b8281111561037e578251825591602001919060010190610363565b5b50905061038c9190610390565b5090565b6103b291905b808211156103ae576000816000905550600101610396565b5090565b905600a165627a7a7230582060fe256956fe2febbd661577111bf37cd5d4f170d829801ac469c3042f8d81760029",
  "source": "// SPDX-License-Identifier: MIT\n//pragma solidity >=0.4.22 <0.9.0;\npragma solidity ^0.4.25;\ncontract HelloWorld {\n  // Define a string variable\n  string name;\n//  constructor() public {\n//  }\n\n  // Modifies the value of string variable (name)\n  function inputUser(string _name) public {\n    name = _name;\n  }\n\n  // Validated that the string variable (name) holds the updated value\n  function dispUser() public view returns(string){\n    return (append(\"Hello world! My name is \", name));\n  }\n\n  // Appends 2 strings a, b\n  function append(string a, string b) internal pure returns (string) {\n    return string(abi.encodePacked(a, b));\n  }\n}\n",
  "sourcePath": "/home/suisei/Documents/GitHub/dapps2/contracts/HelloWorld.sol",
  "compiler": {
    "name": "solc",
    "version": "0.4.25+commit.59dbf8f1.Emscripten.clang"
  },
  "schemaVersion": "3.4.16",
  "updatedAt": "2024-12-28T03:45:45.238Z",
  "networkType": "ethereum",
  "devdoc": {
    "methods": {}
  },
  "userdoc": {
    "methods": {}
  }
}