{
  "contractName": "Oracle",
  "abi": [
    {
      "inputs": [
        {
          "internalType": "address",
          "name": "_oracle",
          "type": "address"
        }
      ],
      "stateMutability": "nonpayable",
      "type": "constructor"
    },
    {
      "anonymous": false,
      "inputs": [
        {
          "indexed": false,
          "internalType": "uint256",
          "name": "contentId",
          "type": "uint256"
        },
        {
          "indexed": false,
          "internalType": "uint256",
          "name": "viewers",
          "type": "uint256"
        }
      ],
      "name": "ContentSet",
      "type": "event"
    },
    {
      "anonymous": false,
      "inputs": [
        {
          "indexed": false,
          "internalType": "address",
          "name": "_newOracle",
          "type": "address"
        }
      ],
      "name": "OracleChanged",
      "type": "event"
    },
    {
      "inputs": [
        {
          "internalType": "uint256",
          "name": "",
          "type": "uint256"
        }
      ],
      "name": "contentViewers",
      "outputs": [
        {
          "internalType": "uint256",
          "name": "",
          "type": "uint256"
        }
      ],
      "stateMutability": "view",
      "type": "function"
    },
    {
      "inputs": [
        {
          "internalType": "uint256",
          "name": "",
          "type": "uint256"
        }
      ],
      "name": "lastContentViewers",
      "outputs": [
        {
          "internalType": "uint256",
          "name": "",
          "type": "uint256"
        }
      ],
      "stateMutability": "view",
      "type": "function"
    },
    {
      "inputs": [
        {
          "internalType": "uint256",
          "name": "",
          "type": "uint256"
        }
      ],
      "name": "lastUpdateTime",
      "outputs": [
        {
          "internalType": "uint256",
          "name": "",
          "type": "uint256"
        }
      ],
      "stateMutability": "view",
      "type": "function"
    },
    {
      "inputs": [],
      "name": "oracle",
      "outputs": [
        {
          "internalType": "address",
          "name": "",
          "type": "address"
        }
      ],
      "stateMutability": "view",
      "type": "function"
    },
    {
      "inputs": [
        {
          "internalType": "uint256",
          "name": "contentId",
          "type": "uint256"
        },
        {
          "internalType": "uint256",
          "name": "viewers",
          "type": "uint256"
        }
      ],
      "name": "setContentViewers",
      "outputs": [],
      "stateMutability": "nonpayable",
      "type": "function"
    },
    {
      "inputs": [
        {
          "internalType": "uint256",
          "name": "contentId",
          "type": "uint256"
        }
      ],
      "name": "getContentViewers",
      "outputs": [
        {
          "internalType": "uint256",
          "name": "",
          "type": "uint256"
        }
      ],
      "stateMutability": "nonpayable",
      "type": "function"
    },
    {
      "inputs": [
        {
          "internalType": "address",
          "name": "_newOracle",
          "type": "address"
        }
      ],
      "name": "changeOracle",
      "outputs": [],
      "stateMutability": "nonpayable",
      "type": "function"
    }
  ],
  "bytecode": "0x608060405234801561001057600080fd5b506040516109803803806109808339818101604052810190610032919061008d565b806000806101000a81548173ffffffffffffffffffffffffffffffffffffffff021916908373ffffffffffffffffffffffffffffffffffffffff160217905550506100ff565b600081519050610087816100e8565b92915050565b60006020828403121561009f57600080fd5b60006100ad84828501610078565b91505092915050565b60006100c1826100c8565b9050919050565b600073ffffffffffffffffffffffffffffffffffffffff82169050919050565b6100f1816100b6565b81146100fc57600080fd5b50565b6108728061010e6000396000f3fe608060405234801561001057600080fd5b506004361061007d5760003560e01c80637dc0d1d01161005b5780637dc0d1d0146100fe5780639013893b1461011c578063a0c13a0e1461014c578063d8e04849146101685761007d565b80632e838e951461008257806347c421b5146100b25780634bcddb1f146100ce575b600080fd5b61009c60048036038101906100979190610540565b610198565b6040516100a991906106c4565b60405180910390f35b6100cc60048036038101906100c79190610517565b610203565b005b6100e860048036038101906100e39190610540565b61030b565b6040516100f591906106c4565b60405180910390f35b610106610323565b6040516101139190610669565b60405180910390f35b61013660048036038101906101319190610540565b610347565b60405161014391906106c4565b60405180910390f35b61016660048036038101906101619190610569565b61035f565b005b610182600480360381019061017d9190610540565b6104d5565b60405161018f91906106c4565b60405180910390f35b600080600260008481526020019081526020016000205460016000858152602001908152602001600020546101cd919061076f565b90506001600084815260200190815260200160002054600260008581526020019081526020016000208190555080915050919050565b60008054906101000a900473ffffffffffffffffffffffffffffffffffffffff1673ffffffffffffffffffffffffffffffffffffffff163373ffffffffffffffffffffffffffffffffffffffff1614610291576040517f08c379a000000000000000000000000000000000000000000000000000000000815260040161028890610684565b60405180910390fd5b806000806101000a81548173ffffffffffffffffffffffffffffffffffffffff021916908373ffffffffffffffffffffffffffffffffffffffff1602179055507f0e05ae75e8b926552cf6fcd744d19f422561e3ced1e426868730852702dbe418816040516103009190610669565b60405180910390a150565b60036020528060005260406000206000915090505481565b60008054906101000a900473ffffffffffffffffffffffffffffffffffffffff1681565b60026020528060005260406000206000915090505481565b60008054906101000a900473ffffffffffffffffffffffffffffffffffffffff1673ffffffffffffffffffffffffffffffffffffffff163373ffffffffffffffffffffffffffffffffffffffff16146103ed576040517f08c379a00000000000000000000000000000000000000000000000000000000081526004016103e490610684565b60405180910390fd5b600a600360008481526020019081526020016000205461040d9190610719565b42101561044f576040517f08c379a0000000000000000000000000000000000000000000000000000000008152600401610446906106a4565b60405180910390fd5b806001600084815260200190815260200160002081905550600060026000848152602001908152602001600020819055504260036000848152602001908152602001600020819055507fb1ab875994ce9cc6c01c2fff5f5b11fffdc9af98c1dbb7b198fe5cc5cee93b1f82826040516104c99291906106df565b60405180910390a15050565b60016020528060005260406000206000915090505481565b6000813590506104fc8161080e565b92915050565b60008135905061051181610825565b92915050565b60006020828403121561052957600080fd5b6000610537848285016104ed565b91505092915050565b60006020828403121561055257600080fd5b600061056084828501610502565b91505092915050565b6000806040838503121561057c57600080fd5b600061058a85828601610502565b925050602061059b85828601610502565b9150509250929050565b6105ae816107a3565b82525050565b60006105c1601983610708565b91507f4f6e6c79206f7261636c652063616e2063616c6c2074686973000000000000006000830152602082019050919050565b6000610601602c83610708565b91507f557064617465732061726520616c6c6f776564206f6e6c79206f6e636520706560008301527f72203130207365636f6e647300000000000000000000000000000000000000006020830152604082019050919050565b610663816107d5565b82525050565b600060208201905061067e60008301846105a5565b92915050565b6000602082019050818103600083015261069d816105b4565b9050919050565b600060208201905081810360008301526106bd816105f4565b9050919050565b60006020820190506106d9600083018461065a565b92915050565b60006040820190506106f4600083018561065a565b610701602083018461065a565b9392505050565b600082825260208201905092915050565b6000610724826107d5565b915061072f836107d5565b9250827fffffffffffffffffffffffffffffffffffffffffffffffffffffffffffffffff03821115610764576107636107df565b5b828201905092915050565b600061077a826107d5565b9150610785836107d5565b925082821015610798576107976107df565b5b828203905092915050565b60006107ae826107b5565b9050919050565b600073ffffffffffffffffffffffffffffffffffffffff82169050919050565b6000819050919050565b7f4e487b7100000000000000000000000000000000000000000000000000000000600052601160045260246000fd5b610817816107a3565b811461082257600080fd5b50565b61082e816107d5565b811461083957600080fd5b5056fea26469706673582212204e90b787f8e61d4e4b7aafa3e6b64144fd1c3506685faf0f26327f491b18935764736f6c63430008000033",
  "immutableReferences": {},
  "source": "// SPDX-License-Identifier: MIT\r\npragma solidity ^0.8.0;\r\n\r\ncontract Oracle {\r\n    address public oracle;\r\n    mapping(uint256 => uint256) public contentViewers;\r\n    mapping(uint256 => uint256) public lastContentViewers;\r\n    mapping(uint256 => uint256) public lastUpdateTime;\r\n\r\n    event OracleChanged(address _newOracle);\r\n    event ContentSet(uint256 contentId, uint256 viewers);\r\n\r\n    modifier onlyOracle() {\r\n        require(msg.sender == oracle, \"Only oracle can call this\");\r\n        _;\r\n    }\r\n\r\n    constructor(address _oracle) {\r\n        oracle = _oracle;\r\n    }\r\n\r\n    function setContentViewers(uint256 contentId, uint256 viewers) external onlyOracle {\r\n        require(\r\n            block.timestamp >= lastUpdateTime[contentId] + 10 seconds,\r\n            \"Updates are allowed only once per 10 seconds\"\r\n        );\r\n\r\n        contentViewers[contentId] = viewers;\r\n        lastContentViewers[contentId] = 0;\r\n\r\n        lastUpdateTime[contentId] = block.timestamp;\r\n\r\n        emit ContentSet(contentId, viewers);\r\n    }\r\n\r\n\r\n    function getContentViewers(uint256 contentId) public  returns (uint256) {\r\n        uint256 viewers = contentViewers[contentId] - lastContentViewers[contentId];\r\n\r\n        lastContentViewers[contentId] = contentViewers[contentId];\r\n\r\n        return viewers;\r\n    }\r\n\r\n    function changeOracle(address _newOracle) external onlyOracle {\r\n        oracle = _newOracle;\r\n\r\n        emit OracleChanged(_newOracle);\r\n    }\r\n\r\n}\r\n",
  "sourcePath": "D:\\KuliahTemp\\Blockchain\\tubes-blockchain\\contracts\\Oracle.sol",
  "compiler": {
    "name": "solc",
    "version": "0.8.0+commit.c7dfd78e.Emscripten.clang"
  },
  "schemaVersion": "3.4.16",
  "updatedAt": "2024-12-30T02:23:02.134Z",
  "devdoc": {
    "kind": "dev",
    "methods": {},
    "version": 1
  },
  "userdoc": {
    "kind": "user",
    "methods": {},
    "version": 1
  }
}