{
  "contractName": "Oracle",
  "abi": [
    {
      "inputs": [
        {
          "internalType": "address",
          "name": "_oracle",
          "type": "address"
        }
      ],
      "stateMutability": "nonpayable",
      "type": "constructor"
    },
    {
      "anonymous": false,
      "inputs": [
        {
          "indexed": false,
          "internalType": "uint256",
          "name": "contentId",
          "type": "uint256"
        },
        {
          "indexed": false,
          "internalType": "uint256",
          "name": "viewers",
          "type": "uint256"
        }
      ],
      "name": "ContentSet",
      "type": "event"
    },
    {
      "anonymous": false,
      "inputs": [
        {
          "indexed": false,
          "internalType": "address",
          "name": "_newOracle",
          "type": "address"
        }
      ],
      "name": "OracleChanged",
      "type": "event"
    },
    {
      "inputs": [
        {
          "internalType": "uint256",
          "name": "",
          "type": "uint256"
        }
      ],
      "name": "contentViewers",
      "outputs": [
        {
          "internalType": "uint256",
          "name": "",
          "type": "uint256"
        }
      ],
      "stateMutability": "view",
      "type": "function",
      "constant": true
    },
    {
      "inputs": [
        {
          "internalType": "uint256",
          "name": "",
          "type": "uint256"
        }
      ],
      "name": "lastUpdateTime",
      "outputs": [
        {
          "internalType": "uint256",
          "name": "",
          "type": "uint256"
        }
      ],
      "stateMutability": "view",
      "type": "function",
      "constant": true
    },
    {
      "inputs": [],
      "name": "oracle",
      "outputs": [
        {
          "internalType": "address",
          "name": "",
          "type": "address"
        }
      ],
      "stateMutability": "view",
      "type": "function",
      "constant": true
    },
    {
      "inputs": [
        {
          "internalType": "uint256",
          "name": "contentId",
          "type": "uint256"
        },
        {
          "internalType": "uint256",
          "name": "viewers",
          "type": "uint256"
        }
      ],
      "name": "setContentViewers",
      "outputs": [],
      "stateMutability": "nonpayable",
      "type": "function"
    },
    {
      "inputs": [
        {
          "internalType": "uint256",
          "name": "contentId",
          "type": "uint256"
        }
      ],
      "name": "getContentViewers",
      "outputs": [
        {
          "internalType": "uint256",
          "name": "",
          "type": "uint256"
        }
      ],
      "stateMutability": "nonpayable",
      "type": "function"
    },
    {
      "inputs": [
        {
          "internalType": "address",
          "name": "_newOracle",
          "type": "address"
        }
      ],
      "name": "changeOracle",
      "outputs": [],
      "stateMutability": "nonpayable",
      "type": "function"
    }
  ],
  "bytecode": "0x608060405234801561001057600080fd5b506040516108823803806108828339818101604052810190610032919061008d565b806000806101000a81548173ffffffffffffffffffffffffffffffffffffffff021916908373ffffffffffffffffffffffffffffffffffffffff160217905550506100ff565b600081519050610087816100e8565b92915050565b60006020828403121561009f57600080fd5b60006100ad84828501610078565b91505092915050565b60006100c1826100c8565b9050919050565b600073ffffffffffffffffffffffffffffffffffffffff82169050919050565b6100f1816100b6565b81146100fc57600080fd5b50565b6107748061010e6000396000f3fe608060405234801561001057600080fd5b50600436106100625760003560e01c80632e838e951461006757806347c421b5146100975780634bcddb1f146100b35780637dc0d1d0146100e3578063a0c13a0e14610101578063d8e048491461011d575b600080fd5b610081600480360381019061007c9190610476565b61014d565b60405161008e91906105fa565b60405180910390f35b6100b160048036038101906100ac919061044d565b61016a565b005b6100cd60048036038101906100c89190610476565b610272565b6040516100da91906105fa565b60405180910390f35b6100eb61028a565b6040516100f8919061059f565b60405180910390f35b61011b6004803603810190610116919061049f565b6102ae565b005b61013760048036038101906101329190610476565b61040b565b60405161014491906105fa565b60405180910390f35b600060016000838152602001908152602001600020549050919050565b60008054906101000a900473ffffffffffffffffffffffffffffffffffffffff1673ffffffffffffffffffffffffffffffffffffffff163373ffffffffffffffffffffffffffffffffffffffff16146101f8576040517f08c379a00000000000000000000000000000000000000000000000000000000081526004016101ef906105ba565b60405180910390fd5b806000806101000a81548173ffffffffffffffffffffffffffffffffffffffff021916908373ffffffffffffffffffffffffffffffffffffffff1602179055507f0e05ae75e8b926552cf6fcd744d19f422561e3ced1e426868730852702dbe41881604051610267919061059f565b60405180910390a150565b60026020528060005260406000206000915090505481565b60008054906101000a900473ffffffffffffffffffffffffffffffffffffffff1681565b60008054906101000a900473ffffffffffffffffffffffffffffffffffffffff1673ffffffffffffffffffffffffffffffffffffffff163373ffffffffffffffffffffffffffffffffffffffff161461033c576040517f08c379a0000000000000000000000000000000000000000000000000000000008152600401610333906105ba565b60405180910390fd5b600a600260008481526020019081526020016000205461035c919061064f565b42101561039e576040517f08c379a0000000000000000000000000000000000000000000000000000000008152600401610395906105da565b60405180910390fd5b8060016000848152602001908152602001600020819055504260026000848152602001908152602001600020819055507fb1ab875994ce9cc6c01c2fff5f5b11fffdc9af98c1dbb7b198fe5cc5cee93b1f82826040516103ff929190610615565b60405180910390a15050565b60016020528060005260406000206000915090505481565b60008135905061043281610710565b92915050565b60008135905061044781610727565b92915050565b60006020828403121561045f57600080fd5b600061046d84828501610423565b91505092915050565b60006020828403121561048857600080fd5b600061049684828501610438565b91505092915050565b600080604083850312156104b257600080fd5b60006104c085828601610438565b92505060206104d185828601610438565b9150509250929050565b6104e4816106a5565b82525050565b60006104f760198361063e565b91507f4f6e6c79206f7261636c652063616e2063616c6c2074686973000000000000006000830152602082019050919050565b6000610537602c8361063e565b91507f557064617465732061726520616c6c6f776564206f6e6c79206f6e636520706560008301527f72203130207365636f6e647300000000000000000000000000000000000000006020830152604082019050919050565b610599816106d7565b82525050565b60006020820190506105b460008301846104db565b92915050565b600060208201905081810360008301526105d3816104ea565b9050919050565b600060208201905081810360008301526105f38161052a565b9050919050565b600060208201905061060f6000830184610590565b92915050565b600060408201905061062a6000830185610590565b6106376020830184610590565b9392505050565b600082825260208201905092915050565b600061065a826106d7565b9150610665836106d7565b9250827fffffffffffffffffffffffffffffffffffffffffffffffffffffffffffffffff0382111561069a576106996106e1565b5b828201905092915050565b60006106b0826106b7565b9050919050565b600073ffffffffffffffffffffffffffffffffffffffff82169050919050565b6000819050919050565b7f4e487b7100000000000000000000000000000000000000000000000000000000600052601160045260246000fd5b610719816106a5565b811461072457600080fd5b50565b610730816106d7565b811461073b57600080fd5b5056fea2646970667358221220cc329ecdb7fc5900513c500dd10fcd60b0a9c23e8e94a6ee0c5b488bc171b6ff64736f6c63430008000033",
  "immutableReferences": {},
  "source": "// SPDX-License-Identifier: MIT\npragma solidity ^0.8.0;\n\ncontract Oracle {\n    address public oracle;\n    mapping(uint256 => uint256) public contentViewers;\n//    mapping(uint256 => uint256) public lastContentViewers;\n    mapping(uint256 => uint256) public lastUpdateTime;\n\n    event OracleChanged(address _newOracle);\n    event ContentSet(uint256 contentId, uint256 viewers);\n\n    modifier onlyOracle() {\n        require(msg.sender == oracle, \"Only oracle can call this\");\n        _;\n    }\n\n    constructor(address _oracle) {\n        oracle = _oracle;\n    }\n\n    function setContentViewers(uint256 contentId, uint256 viewers) external onlyOracle {\n        require(\n            block.timestamp >= lastUpdateTime[contentId] + 10 seconds,\n            \"Updates are allowed only once per 10 seconds\"\n        );\n\n        contentViewers[contentId] = viewers;\n//        lastContentViewers[contentId] = 0;\n\n        lastUpdateTime[contentId] = block.timestamp;\n\n        emit ContentSet(contentId, viewers);\n    }\n\n\n    function getContentViewers(uint256 contentId) public  returns (uint256) {\n//        uint256 viewers = contentViewers[contentId] - lastContentViewers[contentId];\n\n//        lastContentViewers[contentId] = contentViewers[contentId];\n\n        return contentViewers[contentId];\n    }\n\n    function changeOracle(address _newOracle) external onlyOracle {\n        oracle = _newOracle;\n\n        emit OracleChanged(_newOracle);\n    }\n\n}\n",
  "sourcePath": "/home/suisei/Documents/GitHub/dapps2/contracts/Oracle.sol",
  "compiler": {
    "name": "solc",
    "version": "0.8.0+commit.c7dfd78e.Emscripten.clang"
  },
  "schemaVersion": "3.4.16",
  "updatedAt": "2024-12-30T07:21:04.640Z",
  "networkType": "ethereum",
  "devdoc": {
    "kind": "dev",
    "methods": {},
    "version": 1
  },
  "userdoc": {
    "kind": "user",
    "methods": {},
    "version": 1
  }
}