{
  "contractName": "Oracle",
  "abi": [
    {
      "inputs": [
        {
          "internalType": "address",
          "name": "_oracle",
          "type": "address"
        }
      ],
      "stateMutability": "nonpayable",
      "type": "constructor"
    },
    {
      "inputs": [
        {
          "internalType": "uint256",
          "name": "",
          "type": "uint256"
        }
      ],
      "name": "contentViewers",
      "outputs": [
        {
          "internalType": "uint256",
          "name": "",
          "type": "uint256"
        }
      ],
      "stateMutability": "view",
      "type": "function",
      "constant": true
    },
    {
      "inputs": [
        {
          "internalType": "uint256",
          "name": "",
          "type": "uint256"
        }
      ],
      "name": "lastUpdateTime",
      "outputs": [
        {
          "internalType": "uint256",
          "name": "",
          "type": "uint256"
        }
      ],
      "stateMutability": "view",
      "type": "function",
      "constant": true
    },
    {
      "inputs": [],
      "name": "oracle",
      "outputs": [
        {
          "internalType": "address",
          "name": "",
          "type": "address"
        }
      ],
      "stateMutability": "view",
      "type": "function",
      "constant": true
    },
    {
      "inputs": [
        {
          "internalType": "uint256",
          "name": "contentId",
          "type": "uint256"
        },
        {
          "internalType": "uint256",
          "name": "viewers",
          "type": "uint256"
        }
      ],
      "name": "setContentViewers",
      "outputs": [],
      "stateMutability": "nonpayable",
      "type": "function"
    },
    {
      "inputs": [
        {
          "internalType": "uint256",
          "name": "contentId",
          "type": "uint256"
        }
      ],
      "name": "getContentViewers",
      "outputs": [
        {
          "internalType": "uint256",
          "name": "",
          "type": "uint256"
        }
      ],
      "stateMutability": "view",
      "type": "function",
      "constant": true
    },
    {
      "inputs": [
        {
          "internalType": "address",
          "name": "_newOracle",
          "type": "address"
        }
      ],
      "name": "changeOracle",
      "outputs": [],
      "stateMutability": "nonpayable",
      "type": "function"
    }
  ],
  "bytecode": "0x608060405234801561001057600080fd5b506040516107e93803806107e98339818101604052810190610032919061008d565b806000806101000a81548173ffffffffffffffffffffffffffffffffffffffff021916908373ffffffffffffffffffffffffffffffffffffffff160217905550506100ff565b600081519050610087816100e8565b92915050565b60006020828403121561009f57600080fd5b60006100ad84828501610078565b91505092915050565b60006100c1826100c8565b9050919050565b600073ffffffffffffffffffffffffffffffffffffffff82169050919050565b6100f1816100b6565b81146100fc57600080fd5b50565b6106db8061010e6000396000f3fe608060405234801561001057600080fd5b50600436106100625760003560e01c80632e838e951461006757806347c421b5146100975780634bcddb1f146100b35780637dc0d1d0146100e3578063a0c13a0e14610101578063d8e048491461011d575b600080fd5b610081600480360381019061007c9190610406565b61014d565b60405161008e919061058a565b60405180910390f35b6100b160048036038101906100ac91906103dd565b61016a565b005b6100cd60048036038101906100c89190610406565b61023b565b6040516100da919061058a565b60405180910390f35b6100eb610253565b6040516100f8919061052f565b60405180910390f35b61011b6004803603810190610116919061042f565b610277565b005b61013760048036038101906101329190610406565b61039b565b604051610144919061058a565b60405180910390f35b600060016000838152602001908152602001600020549050919050565b60008054906101000a900473ffffffffffffffffffffffffffffffffffffffff1673ffffffffffffffffffffffffffffffffffffffff163373ffffffffffffffffffffffffffffffffffffffff16146101f8576040517f08c379a00000000000000000000000000000000000000000000000000000000081526004016101ef9061054a565b60405180910390fd5b806000806101000a81548173ffffffffffffffffffffffffffffffffffffffff021916908373ffffffffffffffffffffffffffffffffffffffff16021790555050565b60026020528060005260406000206000915090505481565b60008054906101000a900473ffffffffffffffffffffffffffffffffffffffff1681565b60008054906101000a900473ffffffffffffffffffffffffffffffffffffffff1673ffffffffffffffffffffffffffffffffffffffff163373ffffffffffffffffffffffffffffffffffffffff1614610305576040517f08c379a00000000000000000000000000000000000000000000000000000000081526004016102fc9061054a565b60405180910390fd5b600a600260008481526020019081526020016000205461032591906105b6565b421015610367576040517f08c379a000000000000000000000000000000000000000000000000000000000815260040161035e9061056a565b60405180910390fd5b8060016000848152602001908152602001600020819055504260026000848152602001908152602001600020819055505050565b60016020528060005260406000206000915090505481565b6000813590506103c281610677565b92915050565b6000813590506103d78161068e565b92915050565b6000602082840312156103ef57600080fd5b60006103fd848285016103b3565b91505092915050565b60006020828403121561041857600080fd5b6000610426848285016103c8565b91505092915050565b6000806040838503121561044257600080fd5b6000610450858286016103c8565b9250506020610461858286016103c8565b9150509250929050565b6104748161060c565b82525050565b60006104876019836105a5565b91507f4f6e6c79206f7261636c652063616e2063616c6c2074686973000000000000006000830152602082019050919050565b60006104c7602c836105a5565b91507f557064617465732061726520616c6c6f776564206f6e6c79206f6e636520706560008301527f72203130207365636f6e647300000000000000000000000000000000000000006020830152604082019050919050565b6105298161063e565b82525050565b6000602082019050610544600083018461046b565b92915050565b600060208201905081810360008301526105638161047a565b9050919050565b60006020820190508181036000830152610583816104ba565b9050919050565b600060208201905061059f6000830184610520565b92915050565b600082825260208201905092915050565b60006105c18261063e565b91506105cc8361063e565b9250827fffffffffffffffffffffffffffffffffffffffffffffffffffffffffffffffff0382111561060157610600610648565b5b828201905092915050565b60006106178261061e565b9050919050565b600073ffffffffffffffffffffffffffffffffffffffff82169050919050565b6000819050919050565b7f4e487b7100000000000000000000000000000000000000000000000000000000600052601160045260246000fd5b6106808161060c565b811461068b57600080fd5b50565b6106978161063e565b81146106a257600080fd5b5056fea2646970667358221220b1a6c356ed70d3cedbb4750a22c83ffeedc9720288a6706ce94f1f5dfa00e61864736f6c63430008000033",
  "immutableReferences": {},
  "source": "// SPDX-License-Identifier: MIT\npragma solidity ^0.8.0;\n\ncontract Oracle {\n    address public oracle;\n    mapping(uint256 => uint256) public contentViewers;\n    mapping(uint256 => uint256) public lastUpdateTime;\n\n    modifier onlyOracle() {\n        require(msg.sender == oracle, \"Only oracle can call this\");\n        _;\n    }\n\n    constructor(address _oracle) {\n        oracle = _oracle;\n    }\n\n    function setContentViewers(uint256 contentId, uint256 viewers) external onlyOracle {\n        require(\n            block.timestamp >= lastUpdateTime[contentId] + 10 seconds,\n            \"Updates are allowed only once per 10 seconds\"\n        );\n\n        contentViewers[contentId] = viewers;\n\n        lastUpdateTime[contentId] = block.timestamp;\n    }\n\n\n    function getContentViewers(uint256 contentId) external view returns (uint256) {\n        return contentViewers[contentId];\n    }\n\n    function changeOracle(address _newOracle) external onlyOracle {\n        oracle = _newOracle;\n    }\n}\n",
  "sourcePath": "C:\\Users\\USER\\Desktop\\rantaibalok\\tubes-blockchain\\contracts\\Oracle.sol",
  "compiler": {
    "name": "solc",
    "version": "0.8.0+commit.c7dfd78e.Emscripten.clang"
  },
  "schemaVersion": "3.4.16",
  "updatedAt": "2024-12-29T13:06:10.491Z",
  "networkType": "ethereum",
  "devdoc": {
    "kind": "dev",
    "methods": {},
    "version": 1
  },
  "userdoc": {
    "kind": "user",
    "methods": {},
    "version": 1
  }
}